{
  "_format": "hh-sol-artifact-1",
  "contractName": "DegreeVerification",
  "sourceName": "contracts/DegreeVerification.sol",
  "abi": [
    {
      "inputs": [
        {
          "internalType": "uint256",
          "name": "",
          "type": "uint256"
        }
      ],
      "name": "certificates",
      "outputs": [
        {
          "internalType": "uint256",
          "name": "studentId",
          "type": "uint256"
        },
        {
          "internalType": "string",
          "name": "hash",
          "type": "string"
        }
      ],
      "stateMutability": "view",
      "type": "function"
    },
    {
      "inputs": [
        {
          "internalType": "uint256",
          "name": "studentId",
          "type": "uint256"
        }
      ],
      "name": "getCertificate",
      "outputs": [
        {
          "internalType": "string",
          "name": "",
          "type": "string"
        }
      ],
      "stateMutability": "view",
      "type": "function"
    },
    {
      "inputs": [
        {
          "internalType": "uint256",
          "name": "studentId",
          "type": "uint256"
        },
        {
          "internalType": "string",
          "name": "certHash",
          "type": "string"
        }
      ],
      "name": "issueCertificate",
      "outputs": [],
      "stateMutability": "nonpayable",
      "type": "function"
    },
    {
      "inputs": [
        {
          "internalType": "string",
          "name": "name",
          "type": "string"
        },
        {
          "internalType": "string",
          "name": "email",
          "type": "string"
        }
      ],
      "name": "registerStudent",
      "outputs": [
        {
          "internalType": "uint256",
          "name": "",
          "type": "uint256"
        }
      ],
      "stateMutability": "nonpayable",
      "type": "function"
    },
    {
      "inputs": [],
      "name": "studentCount",
      "outputs": [
        {
          "internalType": "uint256",
          "name": "",
          "type": "uint256"
        }
      ],
      "stateMutability": "view",
      "type": "function"
    },
    {
      "inputs": [
        {
          "internalType": "uint256",
          "name": "",
          "type": "uint256"
        }
      ],
      "name": "students",
      "outputs": [
        {
          "internalType": "uint256",
          "name": "id",
          "type": "uint256"
        },
        {
          "internalType": "string",
          "name": "name",
          "type": "string"
        },
        {
          "internalType": "string",
          "name": "email",
          "type": "string"
        },
        {
          "internalType": "bool",
          "name": "exists",
          "type": "bool"
        }
      ],
      "stateMutability": "view",
      "type": "function"
    }
  ],
  "bytecode": "0x6080604052600060025534801561001557600080fd5b50610dc8806100256000396000f3fe608060405234801561001057600080fd5b50600436106100625760003560e01c806306ead22e146100675780630a1b776c1461009a5780630c816de4146100ca57806351640fee146100e6578063663b3e2214610116578063e581f9ee14610147575b600080fd5b610081600480360381019061007c9190610621565b610165565b6040516100919493929190610708565b60405180910390f35b6100b460048036038101906100af9190610890565b6102b2565b6040516100c19190610908565b60405180910390f35b6100e460048036038101906100df9190610923565b61036a565b005b61010060048036038101906100fb9190610621565b61041b565b60405161010d919061097f565b60405180910390f35b610130600480360381019061012b9190610621565b610525565b60405161013e9291906109a1565b60405180910390f35b61014f6105d1565b60405161015c9190610908565b60405180910390f35b600060205280600052604060002060009150905080600001549080600101805461018e90610a00565b80601f01602080910402602001604051908101604052809291908181526020018280546101ba90610a00565b80156102075780601f106101dc57610100808354040283529160200191610207565b820191906000526020600020905b8154815290600101906020018083116101ea57829003601f168201915b50505050509080600201805461021c90610a00565b80601f016020809104026020016040519081016040528092919081815260200182805461024890610a00565b80156102955780601f1061026a57610100808354040283529160200191610295565b820191906000526020600020905b81548152906001019060200180831161027857829003601f168201915b5050505050908060030160009054906101000a900460ff16905084565b6000600260008154809291906102c790610a60565b9190505550604051806080016040528060025481526020018481526020018381526020016001151581525060008060025481526020019081526020016000206000820151816000015560208201518160010190816103259190610c54565b50604082015181600201908161033b9190610c54565b5060608201518160030160006101000a81548160ff021916908315150217905550905050600254905092915050565b60008083815260200190815260200160002060030160009054906101000a900460ff166103cc576040517f08c379a00000000000000000000000000000000000000000000000000000000081526004016103c390610d72565b60405180910390fd5b604051806040016040528083815260200182815250600160008481526020019081526020016000206000820151816000015560208201518160010190816104139190610c54565b509050505050565b606060008083815260200190815260200160002060030160009054906101000a900460ff1661047f576040517f08c379a000000000000000000000000000000000000000000000000000000000815260040161047690610d72565b60405180910390fd5b6001600083815260200190815260200160002060010180546104a090610a00565b80601f01602080910402602001604051908101604052809291908181526020018280546104cc90610a00565b80156105195780601f106104ee57610100808354040283529160200191610519565b820191906000526020600020905b8154815290600101906020018083116104fc57829003601f168201915b50505050509050919050565b600160205280600052604060002060009150905080600001549080600101805461054e90610a00565b80601f016020809104026020016040519081016040528092919081815260200182805461057a90610a00565b80156105c75780601f1061059c576101008083540402835291602001916105c7565b820191906000526020600020905b8154815290600101906020018083116105aa57829003601f168201915b5050505050905082565b60025481565b6000604051905090565b600080fd5b600080fd5b6000819050919050565b6105fe816105eb565b811461060957600080fd5b50565b60008135905061061b816105f5565b92915050565b600060208284031215610637576106366105e1565b5b60006106458482850161060c565b91505092915050565b610657816105eb565b82525050565b600081519050919050565b600082825260208201905092915050565b60005b8381101561069757808201518184015260208101905061067c565b60008484015250505050565b6000601f19601f8301169050919050565b60006106bf8261065d565b6106c98185610668565b93506106d9818560208601610679565b6106e2816106a3565b840191505092915050565b60008115159050919050565b610702816106ed565b82525050565b600060808201905061071d600083018761064e565b818103602083015261072f81866106b4565b9050818103604083015261074381856106b4565b905061075260608301846106f9565b95945050505050565b600080fd5b600080fd5b7f4e487b7100000000000000000000000000000000000000000000000000000000600052604160045260246000fd5b61079d826106a3565b810181811067ffffffffffffffff821117156107bc576107bb610765565b5b80604052505050565b60006107cf6105d7565b90506107db8282610794565b919050565b600067ffffffffffffffff8211156107fb576107fa610765565b5b610804826106a3565b9050602081019050919050565b82818337600083830152505050565b600061083361082e846107e0565b6107c5565b90508281526020810184848401111561084f5761084e610760565b5b61085a848285610811565b509392505050565b600082601f8301126108775761087661075b565b5b8135610887848260208601610820565b91505092915050565b600080604083850312156108a7576108a66105e1565b5b600083013567ffffffffffffffff8111156108c5576108c46105e6565b5b6108d185828601610862565b925050602083013567ffffffffffffffff8111156108f2576108f16105e6565b5b6108fe85828601610862565b9150509250929050565b600060208201905061091d600083018461064e565b92915050565b6000806040838503121561093a576109396105e1565b5b60006109488582860161060c565b925050602083013567ffffffffffffffff811115610969576109686105e6565b5b61097585828601610862565b9150509250929050565b6000602082019050818103600083015261099981846106b4565b905092915050565b60006040820190506109b6600083018561064e565b81810360208301526109c881846106b4565b90509392505050565b7f4e487b7100000000000000000000000000000000000000000000000000000000600052602260045260246000fd5b60006002820490506001821680610a1857607f821691505b602082108103610a2b57610a2a6109d1565b5b50919050565b7f4e487b7100000000000000000000000000000000000000000000000000000000600052601160045260246000fd5b6000610a6b826105eb565b91507fffffffffffffffffffffffffffffffffffffffffffffffffffffffffffffffff8203610a9d57610a9c610a31565b5b600182019050919050565b60008190508160005260206000209050919050565b60006020601f8301049050919050565b600082821b905092915050565b600060088302610b0a7fffffffffffffffffffffffffffffffffffffffffffffffffffffffffffffffff82610acd565b610b148683610acd565b95508019841693508086168417925050509392505050565b6000819050919050565b6000610b51610b4c610b47846105eb565b610b2c565b6105eb565b9050919050565b6000819050919050565b610b6b83610b36565b610b7f610b7782610b58565b848454610ada565b825550505050565b600090565b610b94610b87565b610b9f818484610b62565b505050565b5b81811015610bc357610bb8600082610b8c565b600181019050610ba5565b5050565b601f821115610c0857610bd981610aa8565b610be284610abd565b81016020851015610bf1578190505b610c05610bfd85610abd565b830182610ba4565b50505b505050565b600082821c905092915050565b6000610c2b60001984600802610c0d565b1980831691505092915050565b6000610c448383610c1a565b9150826002028217905092915050565b610c5d8261065d565b67ffffffffffffffff811115610c7657610c75610765565b5b610c808254610a00565b610c8b828285610bc7565b600060209050601f831160018114610cbe5760008415610cac578287015190505b610cb68582610c38565b865550610d1e565b601f198416610ccc86610aa8565b60005b82811015610cf457848901518255600182019150602085019450602081019050610ccf565b86831015610d115784890151610d0d601f891682610c1a565b8355505b6001600288020188555050505b505050505050565b7f53747564656e7420646f6573206e6f7420657869737400000000000000000000600082015250565b6000610d5c601683610668565b9150610d6782610d26565b602082019050919050565b60006020820190508181036000830152610d8b81610d4f565b905091905056fea26469706673582212209415a42e53dfa0121531883e9867f8734f465d64bb9a798d4970629a0f1f703964736f6c63430008140033",
  "linkReferences": {},
  "deployedLinkReferences": {}
}